:020000040800F2
:10000000785100205D020008352E0008A723000863
:10001000E52C0008411000087535000800000000BC
:100020000000000000000000000000009D0100082A
:100030009912000800000000F9010008E1300008F2
:1000400077020008770200087702000877020008AC
:10005000770200087702000877020008770200089C
:10006000770200087702000877020008770200088C
:10007000770200087702000877020008770200087C
:10008000770200087702000877020008770200086C
:10009000770200087702000877020008770200085C
:1000A000770200087702000877020008770200084C
:1000B000770200087702000877020008770200083C
:1000C000770200087702000877020008770200082C
:1000D00077020008513500085D35000869350008D1
:1000E000770200087702000877020008770200080C
:1000F00077020008770200087702000877020008FC
:1001000077020008770200087702000877020008EB
:10011000770200087702000877020008B131000872
:1001200077020008770200087702000877020008CB
:1001300077020008770200087702000877020008BB
:1001400077020008770200087702000877020008AB
:10015000770200087702000877020008770200089B
:10016000770200087702000877020008770200088B
:1001700077020008770200087702000800000000FC
:100180007702000877020008DFF80CD000F04AFC84
:1001900000480047B1640008785100202C4B1968D2
:1001A0000868B0E8F04F80F30988BFF36F8F4FF015
:1001B000000080F3118870470000000008480068C4
:1001C000006880F308884FF0000080F3148862B65E
:1001D00061B6BFF34F8FBFF36F8F00DF00BF00BF6B
:1001E00008ED00E0DFF80C00016841F470010160E7
:1001F000704700BF88ED00E0EFF30980BFF36F8F19
:10020000134B1A681EF0100F08BF20ED108A20E96A
:10021000F04F106009B44FF0500080F31188BFF325
:100220004F8FBFF36F8F08F013F84FF0000080F38B
:10023000118809BC19680868B0E8F04F1EF0100F6B
:1002400008BFB0EC108A80F30988BFF36F8F704746
:1002500030000020EFF3058070470000064880471B
:1002600006480047FEE7FEE7FEE7FEE7FEE7FEE79B
:10027000FEE7FEE7FEE7FEE795310008890100088A
:100280002DE9F05F0546002092469B4688460646CB
:10029000814640241BE0284641464746224600F05E
:1002A000A2FA53465A46C01A914110D31146184635
:1002B000224600F089FA2D1A67EB01084F462246C4
:1002C0000120002100F080FA17EB00094E41201EAA
:1002D000A4F10104DFDC484631462A464346BDE826
:1002E000F09F2DE9F0410024061B254671F1000620
:1002F00005DA01240027D0EB070067EB0101161E89
:1003000073F1000605DA0027D2EB0702012567EB3F
:100310000303FFF7B5FF86460E4617469C46AC42E0
:1003200004D00025D0EB050E65EB010624B10020BA
:10033000D2EB000760EB030C704631463A46634649
:10034000BDE8F08140EA01039B0703D009E008C93A
:10035000121F08C0042AFAD203E011F8013B00F88A
:10036000013B521EF9D27047D2B201E000F8012BD6
:10037000491EFBD270470022F6E710B513460A4625
:1003800004461946FFF7F0FF204610BD30B504467D
:100390000020034600E05B1C934203D2E05CCD5C8E
:1003A000401BF8D030BD2DE9FE4F804681EA0300A6
:1003B000C00F0C46009021F0004123F00045B8EB3F
:1003C0000200A94105D24046214690461C460B46F4
:1003D000024623F00040104347D0270DC7F30A0020
:1003E000C3F30A510290401A019040286BDAC3F31C
:1003F000130040F4801B0098924620B10023D2EBFA
:10040000030A63EB0B0B01985946C0F140025046BA
:1004100000F0DAF906460D4650465946019A00F0BA
:10042000F2F910EB08006141002487EA115284EAD6
:10043000E7731A4340D0009A62B3019A012A4FEA47
:10044000075215DC001B61EB02014FF0004202EA8B
:100450000752CDE90042001C41F5801132462B467F
:1004600000F029FA03B0BDE8F08F40462146F9E7D5
:10047000001B61EB0201001C41F5801300185B4179
:100480002018A2F5001747EB030140EAD570B61912
:100490006D4111E06D084FEA360645EAC0754FEA36
:1004A0000752001B61EB0201001C41F58011490855
:1004B0004FEA30000019514132462B4603B0BDE8E7
:1004C000F04F00F0E9B90098012240000023D0EB82
:1004D000020263EBE073009821464FEAE074B8EB48
:1004E000000061EB0401E9E783F000435BE781F082
:1004F000004158E72DE9FE4F81EA030404F000446F
:1005000021F0004100944FF0000B23F0004350EA2B
:1005100001045ED052EA03045BD0C3F30A54C1F372
:100520000A552C44A4F2F3340194A0FB0254C1F305
:10053000130141F48011C3F3130343F4801301FB4F
:10054000024400FB034E840A970A44EA815447EAB6
:100550008357A4FB076802958D0A05FB07854FEAC0
:10056000932C04FB0C542705029D4FEA065847EADA
:100570001637B5EB08056EEB070C870E920E47EAAF
:10058000811742EA8312A7FB0201B6EB0B0164EB71
:1005900000042B0D43EA0C335E1844EB1C50DA4682
:1005A0005146E7FB0201C5F313044FEA0B3343EA5C
:1005B00014534FEA0432019C43EA0603A4F10C04ED
:1005C0000294009CCDE900B400F075F903B0BDE8D9
:1005D000F08F00200146F9E72DE9F04D81EA030490
:1005E00004F0004B21F0004514464FF0000A23F0C0
:1005F000004150EA050220D054EA01021DD0C5F3A3
:100600000A570246C5F31303C1F31300C1F30A5698
:1006100040F4801543F48013A7EB0608101BD64660
:1006200008F2FD3873EB050002D308F1010801E080
:1006300092185B41B8F1000F03DA00200146BDE8D3
:10064000F08D00204FF48011064684460EE0171B03
:1006500073EB050705D3121B63EB050306434CEA56
:10066000010C49084FEA300092185B4150EA01073B
:10067000EDD152EA030012D082EA040083EA0501B8
:10068000084305D0101BAB4106D20122002306E02F
:1006900000224FF0004302E06FF0010253101AEB0A
:1006A00006004CEB085110EB0A0041EB0B01BDE8D2
:1006B000F04D00F0F1B80EB540F233410291002147
:1006C000CDE900110A460B4600F0F5F803B000BD75
:1006D00070B5C1F30A5201F000450024C1F31301C3
:1006E00040F2FF3341F480119A4201DA002070BDDC
:1006F00040F233439A42A2F2334203DC524200F00A
:1007000072F800E090402C43F1D0404270BD00F000
:10071000004230F000400AD0C10D01F56071C0F315
:10072000160042EA0151C2084007114370470020F9
:100730000146704730B5041E71F1000404DB4FF030
:100740000044404264EB0101141E73F1000405DB18
:100750001C464FF00043524263EB0403994208BF2A
:10076000904230BD01F0004330B421F0004150EA26
:10077000010206D00A0DA2F56072C1F31301002A2E
:1007800002DC30BC00207047440F44EAC104C100C1
:10079000E01830BC00EBC25000F047B830B50B4653
:1007A000014600202022012409E021FA02F59D42A1
:1007B00005D303FA02F5491B04FA02F52844151E75
:1007C000A2F10102F1DC30BD202A04DB203A00FA5C
:1007D00002F1002070479140C2F1200320FA03F398
:1007E000194390407047202A04DB203A21FA02F096
:1007F0000021704721FA02F3D040C2F1200291405B
:10080000084319467047202A06DBCB17203A41FAE5
:1008100002F043EAE07306E041FA02F3D040C2F18D
:10082000200291400843194670470029A8BF70472D
:10083000401C490008BF20F00100704710B4B0FA16
:1008400080FC00FA0CF050EA010404BF10BC7047B1
:1008500049B1CCF1200421FA04F411FA0CF118BFCB
:10086000012121430843A3EB0C01CB1D4FEA00619A
:100870004FEA102042BF002010BC704700EBC3506D
:1008800010440029A4BF10BC7047401C490008BF99
:1008900020F0010010BC704710B5141E73F1000465
:1008A00008DA401C41F1000192185B411A4301D162
:1008B00020F0010010BD2DE9F04D92469B4611B18C
:1008C000B1FA81F202E0B0FA80F220329046FFF7EE
:1008D0007BFF04460F4640EA0A0041EA0B015346FB
:1008E0005A46084313D0114653EA010019D0C8F103
:1008F00040025046FFF777FF05460E4650465946E0
:100900004246FFF761FF084305D0012004E020467E
:100910003946BDE8F08D0020054346EAE0762C43D9
:1009200037430A986305E40AA0EB08000022FD0A99
:1009300044EA47540A3002D500200146E9E70105A0
:1009400010196941DDE9084500196941BDE8F04D1C
:10095000A2E72DE9F04D00231A461B1A8A4103DB5A
:1009600000200146BDE8F08DC1F30A52C1F3130126
:1009700041F480154FF0000BD10702D100186D41F2
:10098000521E0027044640F2FF11384601EB620A6E
:100990003E468046024600204FF48011FFF723FFB9
:1009A000C2197141BB1846EB0100B4EB030C75EBA7
:1009B000000C04D3E41A65EB000517460E46241913
:1009C00008F101006D4180463428E3DDF91946EB5A
:1009D0000600091BA84103D24FF0FF32134601E085
:1009E000002213461BEB070046EB0A51BDE8F04D11
:1009F000FFF752BFC1F30A52C1F3130140F2FF33B4
:100A000041F480119A4202DA00200146704740F218
:100A100033439A42A2F2334202DC5242FFF7E3BE72
:100A2000FFF7D2BE064C074D06E0E06840F0010338
:100A300094E8070098471034AC42F6D3FFF7A8FBC0
:100A4000E89C0008089D00080EB5C10F80EAE07020
:100A50000844CA07002140F233438DE80E000A46DD
:100A60000B46FFF728FF03B000BD70B58C1810F8D7
:100A7000015B15F0070301D110F8013B2A1106D1E3
:100A800010F8012B03E010F8016B01F8016B5B1EFD
:100A9000F9D12B0705D40023521E0DD401F8013BD8
:100AA000FAE710F8013BCB1A921C03E013F8015B44
:100AB00001F8015B521EF9D5A142D8D3002070BDC8
:100AC000B5EEC00AF1EE10FA01DAB1EE400ABDEE61
:100AD000C00A10EE100A704770B5A84C2DED0A8BB5
:100AE00094ED030ADFEDA60A30EEC00ADFEDA58A19
:100AF00080EE288A18EE100AFFF709FE41EC100B71
:100B000003F096FB9FEDA09B51EC100B53EC192BBF
:100B1000FFF7F0FC9FED9E1B53EC112BFFF7E7FC5A
:100B2000FFF720FE0AEE100A18EE100AFFF7EFFD9D
:100B300041EC100B03F018FB53EC192B51EC100B8C
:100B4000FFF7D8FC9FED941B53EC112BFFF7CCFC67
:100B5000FFF708FE09EE900A94ED040AFFF7B0FFD4
:100B600000EBD070401000EE100AB8EEC00ADFEDC6
:100B70008CAA3AEEC00ADFED8B0A30EE600AD4EDA3
:100B8000040A80EE288A80EEA80A10EE100AFFF709
:100B9000BEFD41EC100B03F0E7FA9FED83BB51EC77
:100BA000100B53EC1B2BFFF7A2FC9FED811B53ECAA
:100BB000112BFFF79FFC41EC100B03F09DFB51EC58
:100BC000100BFFF7CFFD054618EE100AFFF79FFD4B
:100BD00041EC100B03F0C8FAB0EE40CAF0EE60CA68
:100BE0002846FFF794FD53EC1C2BFFF783FCFFF71F
:100BF000B9FD09EE100A18EE100AFFF788FD41EC66
:100C0000100B03F015FBB0EE40CAF0EE60CA2846A8
:100C1000FFF77DFD53EC1C2BFFF76CFCFFF7A2FDEB
:100C200094ED040A08EE100AB5EEC00AF1EE10FACF
:100C300003D2B1EE499AB1EE488AD4ED050A80EEAE
:100C4000A80A10EE100AFFF762FD41EC100B03F04A
:100C50008BFA53EC1B2B51EC100BFFF748FC9FED6C
:100C6000561B53EC112BFFF745FC41EC100B03F026
:100C700043FB51EC100BFFF775FD054694ED050A9B
:100C8000FFF71EFF00EBD070401000EE100AB8EE28
:100C9000C00A3AEEC00ADFED4A0A30EE600AC0EE42
:100CA00028AA1AEE900AFFF732FD41EC100B03F070
:100CB0005BFAB0EE40BAF0EE60BA2846FFF727FDC7
:100CC00053EC1B2BFFF716FCFFF74CFD08EE900AC8
:100CD0001AEE900AFFF71BFD41EC100B03F0A8FA87
:100CE000B0EE40BAF0EE60BA2846FFF710FD53ECC4
:100CF0001B2BFFF7FFFBFFF735FDD4ED050A00EED8
:100D0000100AF5EEC00AF1EE10FA03D2F1EE688A8D
:100D1000B1EE400A3AEE491A2A4878EEE90A78EE2E
:100D2000401A80ED0C1AC0ED0D0AC0ED0E1AF1EE5E
:100D30004A1A4C3071EEC91AC0ED0C1AC0ED0D0AFA
:100D400078EE000AC0ED0E0A4C3079EEA80AC0ED2C
:100D50000C1A70EE481AC0ED0D0AC0ED0E1A4C3098
:100D600080ED0C1AC0ED0D0AF1EE480A30EEC00A13
:100D700080ED0E0ABDEC0A8B70BD00005C4D0020BA
:100D8000FAFE28424E626642000000C0CC2C55405C
:100D9000000000A099794C40000000A099594F40F4
:100DA0000000B442BCF45542000000000000F03FD7
:100DB000000000A0B0B0D54000000040B258D440C0
:100DC000045660422C4C00204C4810B5047E022C86
:100DD0002DD04B4AD2E9013112681039103A103B3C
:100DE000F4B3012C73D0032C70D14649464A474BCB
:100DF000096801611268B1EE040A4261994201DD9D
:100E000080ED040A42490469F9EE040A8C4201D9D2
:100E1000C0ED040A9A4201DD80ED050A42698A426A
:100E200001D9C0ED050ABDE81040FFF755BE9FEDA2
:100E3000390A002180ED030A80ED040A80ED050ADD
:100E4000016041608160344800F0FCF832484C3069
:100E500000F0F8F82948983800F0F4F8274800E046
:100E600004E0BDE810404C3800F0ECB800EE103A59
:100E7000B8EEC00A80ED030A00EE101AF8EEC00AC0
:100E800000EE102A254A10EE901AB8EEC00AC0ED06
:100E9000040AF2EE040A80ED050A914201DDC0ED7C
:100EA000040A1F490369BAEE041A8B4201D980ED86
:100EB000041A10EE103A934201DDC0ED050A4269B2
:100EC0008A42B0D980ED051AADE700E015E08260F6
:100ED000C0E9001301F0BAFC0F4801F005FF0E480D
:100EE0004C3001F001FF0548983801F0FDFE034841
:100EF000BDE810404C3801F0F7BE10BD5C4D00203D
:100F0000D04B0020BC000020C40000200000A04006
:100F10000000A0C0000000002C4C00200000204178
:100F2000000020C130B52F49012202240A704C7004
:100F3000032088702C489FED2D0ADFED2D0A0368F1
:100F40000B6143684B618368C1E90632931E0B62F3
:100F500081ED090A81ED0A0AC1ED0B0A4C31042525
:100F60000D7005254D7006258D70C5680D610569EC
:100F70004D614569C1E906520A6281ED090A81EDB8
:100F80000A0AC1ED0B0A4C310A250D700B254D7074
:100F90000C258D70456A0D61856A4D61C56A8D614C
:100FA000C1E9073281ED090A81ED0A0AC1ED0B0A98
:100FB0004C3107220A7008224A7009228A7082691D
:100FC0000A61C2694A61006AC1E906030B6281EDE8
:100FD000090A81ED0A0A01F14C00C1ED0B0A047601
:100FE00030BD00002C4C002010010020000000004B
:100FF0003333AD4210490222104891F84830012B9A
:1010000001D002767047CB68012B02D08B69012B8F
:1010100000D102760A69012A02D0CA69012A01D1E7
:10102000002202764A69012A00D10276096A012962
:10103000E8D1032101767047D04B00205C4D0020A1
:10104000FEE700009FED040A80ED0C0A80ED0D0A1A
:1010500080ED0E0A704700000000000038B5002047
:1010600000906B4601227521682005F08FF933A0AE
:1010700002F082FA9DF8000068280FD038A002F034
:101080007BFABFF34F8F3A4801683A4A01F4E061B6
:1010900011430160BFF34F8F00BFFDE705F0F4FA85
:1010A000002849D1782005F097FF10B923A002F05D
:1010B00063FA782005F014FA10B92FA002F05CFA58
:1010C000C82005F049FF10B935A002F055FA04F028
:1010D00083FB10B93CA002F04FFA4848044605F0E3
:1010E000BDF90546E01C05F0B9F945EAC005A01DAB
:1010F00005F0B4F945EA801080B204F01FFD10B984
:101100003FA002F039FA40F2731004F03DFA10B932
:1011100045A002F031FAC82004F078FC10B94CA0C8
:1011200002F02AFA06F096FD012005F03BFE0028A9
:1011300002D150A002F020FA38BD00006D70755F3A
:101140007365745F73656E736F7220636F6D706C1F
:10115000657465202E2E2E2E2E2E0D0A0000000006
:10116000444D505F496E6974204661696C210A00E4
:101170000CED00E00400FA056D70755F636F6E663C
:1011800069677572655F6669666F20636F6D706C05
:10119000657465202E2E2E2E2E2E0D0A00000000C6
:1011A0006D70755F7365745F73616D706C655F7290
:1011B00061746520636F6D706C657465202E2E2ED2
:1011C0002E2E2E0D0A000000646D705F6C6F61643E
:1011D0005F6D6F74696F6E5F6472697665725F666A
:1011E00069726D7761726520636F6D706C6574658F
:1011F000202E2E2E2E2E2E0D0A000000D4000020B0
:10120000646D705F7365745F6F7269656E7461742D
:10121000696F6E20636F6D706C657465202E2E2E65
:101220002E2E2E0D0A000000646D705F656E6162E7
:101230006C655F6665617475726520636F6D706C57
:10124000657465202E2E2E2E2E2E0D0A0000000015
:10125000646D705F7365745F6669666F5F726174F9
:101260006520636F6D706C657465202E2E2E2E2E9A
:101270002E0D0A006D70755F7365745F646D705F2D
:10128000737461746520636F6D706C657465202E76
:101290002E2E2E2E2E0D0A007047704770B5B3F516
:1012A000804F05D06FF0704140F82210002070BDD3
:1012B00050F82240084B8E891C40D1E9003543EAA2
:1012C00005138D6889692D0245EA06452B430B43BA
:1012D000234340F82230E9E70000F0CFF0B50C6876
:1012E00050F82430114A1340D1E90125D1E90367B0
:1012F0002A433E4332434E6932438E693243CE69BC
:1013000032430E6A32434E6A32438E6A3243CE6AA9
:101310003243CE6B096B32430A431A43082D01D185
:1013200042F0400240F824200020F0BD8000F0FF91
:1013300030B500EB820250688D8900F04043D1E95E
:10134000000440EA04108C68240244EA0544204367
:101350000C8A074D05EB045420430C7D6D0105EB11
:10136000046489692043084318435060002030BD5D
:101370000000F0FF90F83510022903D0802141656C
:1013800001207047052180F835100068016821F0C0
:10139000010101600020704770B5044600F050F96B
:1013A0000546601C02D004480078044400F048F967
:1013B000401BA042FAD370BD20000020F0B587B0DA
:1013C00014216846FEF7D7FF2048016800293AD16A
:1013D000012101601E480024016841F00101016003
:1013E0000068022500F0010005904FF23F00CDE9B2
:1013F000000502AA03260C2782E8D000694615489A
:1014000000F030F841F23F00CDE9000502AA69463C
:1014100082E8D000104800F025F84FF68370CDE93F
:10142000000502AA694682E8D0000C4800F01AF8CC
:101430004FF63370CDE9000502AA694682E8D00074
:10144000074800F00FF807B0F0BD000018000020BA
:1014500038380240001402400018024000100240D8
:10146000000C02402DE9F84F00224FF0010803253F
:101470004FF00F0E0B6808FA02F42340A3426ED11E
:101480004E68012E05D0022E03D0112E01D0122E4F
:1014900012D186684FEA420C05FA0CF7BE43CF68BA
:1014A00007FA0CF7374387604668A6430C79C4F304
:1014B0000014944034434460C668570005FA07FCA2
:1014C0008C6826EA0C06BC403443C4604C68022C8D
:1014D00001D0122C13D1D40800EB8404A346D4F815
:1014E000209054074FEAD46A0EFA0AF629EA060950
:1014F0000E6906FA0AF646EA0906CBF82060066885
:101500000C7926EA0C0604F00304BC403443046062
:101510004C68E40065D5364C266846F48046266063
:10152000246822F0030604F480440094314C3444CF
:10153000A446D4F808489607370F0EFA07F6B443C6
:101540002D4EB04201D1002624E02C4EB04201D1F4
:1015500001261FE02A4EB04202D102261AE040E0E6
:10156000284EB04201D1032614E0274EB04201D1EB
:1015700004260FE0254EB04201D105260AE0244E94
:10158000B04201D1062605E0224EB04201D1072625
:1015900000E00826BE402643CCF808681E4E34689A
:1015A0004F689C43FF0300D51C4334601A4C241D34
:1015B00026684F689E43BF0300D51E432660164E23
:1015C000083634684F689C43FF0200D51C433460E2
:1015D000114E0C3634684F689C43BF0200D51C4343
:1015E0003460521C102AFFF445AFBDE8F88F0000AC
:1015F0004438024000300140000002400004024034
:1016000000080240000C024000100240001402409A
:1016100000180240001C0240003C014000690840E4
:1016200000D001207047426931EA020200D109046A
:10163000816170470AB1816170470904FBE70000CE
:10164000014880687047000020000020024881683F
:101650000278114481607047200000200B4810B5CB
:10166000016841F400710160016841F4806101602A
:10167000016841F480710160032000F08DF80020C2
:1016800000F006F800F03EF8002010BD003C0240DB
:1016900010B5014688B00022372000F05DF83720F1
:1016A00000F04CF813480024016841F0200101606B
:1016B000006805A900F020000690684600F018F9BF
:1016C00000F036F90C494000B0FBF1F10C480B4A30
:1016D000491E026040F2E732C0E90324C0E9011468
:1016E00000F0C9FB10B1012008B010BD044800F0A3
:1016F000DEFBF9E74038024040420F000014004092
:10170000B00200200C4882B0016841F480410160C1
:10171000006800F4804000900748001F016841F015
:10172000805101600068002200F0805000900F217D
:10173000901E02B000F010B844380240002809DBC7
:1017400000F01F02012191404009800000F1E020DB
:10175000C0F8001170470000F0B40E4B1B680C4637
:10176000C3F30223C3F10705042D00D90425191D75
:10177000072901D2002300E0DB1E012606FA05F14D
:10178000491E214099409E40761E16403143F0BCD0
:1017900001F01ABF0CED00E0064900F007020868EE
:1017A0004FF6FF03184040EA0220034A1043086046
:1017B000704700000CED00E00000FA052DE9F0474D
:1017C0000E46050065D0DFF81481D8F80000F7B2A6
:1017D00000F00F00B04207D288F80070D8F800007F
:1017E00000F00F00B04254D128683D4C810712D55B
:1017F000400703D5206840F4E050206028780007B7
:1018000003D5206840F4604020602068A96820F07B
:10181000F000084320602878C0072DD03049686860
:101820000839012812D0022813D0032811D00968E2
:10183000890700292DDA216821F003010143216085
:10184000FFF7FEFE814641F2883A0EE009688903FF
:10185000EFE709688901ECE7FFF7F2FEA0EB090169
:10186000514502D90320BDE8F0872068696800F07F
:101870000C00B0EB810FEFD1D8F80010404601F01A
:101880000F01B14207D90770006800F00F00B042A5
:1018900001D00120E7E72878400705D52068E968EE
:1018A00020F4E050084320602878000706D520681F
:1018B000296920F4604040EAC100206000F058F837
:1018C0002168084AC1F30311515CC8400649086009
:1018D00006480068FFF7DCFE0020C4E7003C024039
:1018E00008380240A48D00082C00002024000020AD
:1018F0000F2202600C4A136803F00303436013686D
:1019000003F0F0038360136803F4E053C3601268CC
:101910004FF4E05303EAD20202610448006800F089
:101920000F0008607047000008380240003C024089
:101930000448054900680968044AC1F38221515CE2
:10194000C84070472C00002008380240B48D0008C1
:101950000448054900680968044AC1F34231515CF2
:10196000C84070472C00002008380240B48D0008A1
:10197000154810B5006810F00C02144813D0144933
:10198000042A0FD0082A0ED10F4C241F2268236886
:1019900002F03F025B0207D52068C0F38810A0FB6D
:1019A000010106E0084610BD2168C1F38811A1FBC2
:1019B00000010023FEF764FC2168C1F30141491CCA
:1019C0004900B0FBF1F010BD083802400024F400DB
:1019D00040787D012DE9F84F04006ED02078DFF8C3
:1019E0003C93C007A9F104054AD009F1040001683D
:1019F000C1F38101012908D00068C0F381000228E9
:101A00000AD1D9F80000400206D52868800337D5EE
:101A100060680028E1D033E06068B0F5803F10D006
:101A2000B0F5A02F286810D020F4803028602868F6
:101A300020F4802028606068A8B1FFF701FE064608
:101A40000DE0286840F48030F4E740F480202860FE
:101A5000F7E700BFFFF7F4FD801B642873D8286800
:101A60008003F7D50CE0FFF7EBFD064605E000BF6D
:101A7000FFF7E6FD801B6428F0D828688003F7D4C0
:101A80002078DFF89C8280074FF0000A3ED5A348FB
:101A9000001D016811F00C0F08D00068C0F3810030
:101AA00002280BD1D9F80000400207D4286880072B
:101AB00016D5E068012800D112E02BE1E068B8B14A
:101AC0000120C8F80000FFF7BBFD064605E000BF97
:101AD000FFF7B6FD801B0228C0D828688007F7D51D
:101AE0002868216920F0F80040EAC10028600DE074
:101AF000C8F800A0FFF7A4FD064604E0FFF7A0FD2C
:101B0000801B02281FD828688007F7D42078000798
:101B100022D5824E83486169703671B1012101601E
:101B2000FFF78EFD074604E0FFF78AFDC01B022881
:101B300009D830688007F7D50EE0C0F800A0FFF79D
:101B40007FFD074605E082E0FFF77AFDC01B022813
:101B50007DD830688007F7D42078400768D5DFF853
:101B6000BCB100270BF13C0BDBF80000C0000BD42C
:101B7000DBF8001041F08051CBF80010DBF80000DA
:101B8000012700F080500090674E3068C00510D4E7
:101B9000306840F480703060FFF752FD009005E03F
:101BA000FFF74EFD0099401A022850D83068C00552
:101BB000F6D55A4EA0686C3601280FD0052830683B
:101BC00010D020F001003060306820F00400306058
:101BD000A068B8B1FFF734FD00900FE0306840F026
:101BE0000100F4E740F004003060F7E7FFF728FD5C
:101BF0000099411A41F28830814266D830688007E6
:101C0000F4D50EE0FFF71CFD009007E0FFF718FD8C
:101C10000099411A41F28830814256D830688007D5
:101C2000F4D42FB1DBF8001021F08051CBF8001074
:101C3000A069C8B33949091D0968C1F381010229A6
:101C40004AD00228504607D0C8F8600000E03CE0C7
:101C5000FFF7F6FC04463BE04746C8F86000FFF794
:101C6000EFFC064605E000BFFFF7EAFC801B0228F8
:101C70002BD828688001F7D4D4E907010843A16A6A
:101C80002A4A490802EB0141626A41EA821108438B
:101C900094F82C1040EA0161C9F800100120386660
:101CA000FFF7CEFC044606E036E000BFFFF7C8FCB5
:101CB000001B022809D828688001F7D52CE000BF56
:101CC000FFF7BEFC001B022802D90320BDE8F88FF5
:101CD00028688001F4D41FE00128F7D0D9F800006B
:101CE000E26900F48001914214D1226A00F03F01C0
:101CF00091420FD147F6C071626A0140914209D109
:101D0000A26A00F44031914204D1E16A00F07060AF
:101D1000884201D00120D9E70020D7E704380240EB
:101D200000004742800E4742007000400000FFFF65
:101D300070B5040005D00025A56294F8510010B1DB
:101D400006E0012070BD84F85050204600F030F8C5
:101D5000022084F851002068016821F040010160F0
:101D6000D4E901010843D4E903121143084361692E
:101D70000843218B01F400710843E1690843216A9B
:101D80000843A16A084321680860A069042101EAA8
:101D90001040616A0843216848602068C16921F4E5
:101DA0000061C1616565012084F85100002070BDAB
:101DB00010B586B0044614216846FEF7DCFA1349D4
:101DC0002068884220D112480021026842F48052E3
:101DD0000260006800F4805005900D4814380268D5
:101DE00042F001020260006800F001000590E0206E
:101DF00000900220CDE9010103200390052004900A
:101E000069460448FFF72EFB06B010BD00300140C4
:101E1000443802400000024070B515460E460400EA
:101E200003D094F8490010B107E0012070BD0020F4
:101E300084F84800204600F01AF804F108012068F0
:101E4000FFF74CFA3146A2682068FFF771FAD4E92F
:101E500001022946236BFFF721FAA168206850F898
:101E6000212042F0010240F82120002070BDFFF740
:101E7000A5BA7047704710B5040003D094F83D0030
:101E800010B107E0012010BD002084F83C0020467E
:101E900000F00CF8022084F83D00211D206801F0BC
:101EA0008DF9012084F83D00002010BD70470168C5
:101EB000CA6842F00102CA600068816801F0070147
:101EC000062903D0016841F001010160002070473C
:101ED000704770B50446006801694FF00005C943BA
:101EE000890715D4C168C943890711D4E91E016166
:101EF00001202077206880698007204602D0FFF704
:101F0000E7FF04E000F098F8204600F096F8257707
:101F100020680169C943490717D4C168C943490703
:101F200013D46FF0040101610220207720688069DA
:101F300010F4407F204602D0FFF7CAFF04E000F013
:101F40007BF8204600F079F8257720680169C943BD
:101F5000090716D4C168C943090712D46FF00801F4
:101F60000161042020772068C0698007204602D0E4
:101F7000FFF7AEFF04E000F05FF8204600F05DF8E8
:101F8000257720680169C943C90617D4C168C943C8
:101F9000C90613D46FF01001016108202077206872
:101FA000C06910F4407F204602D0FFF791FF04E0A3
:101FB00000F042F8204600F040F8257720680169DB
:101FC000C943C90708D1C168C943C90704D1891EDB
:101FD0000161204600F032F820680169C943090612
:101FE00009D4C168C943090605D46FF080010161B5
:101FF0002046FFF73EFF20680169C943490609D41E
:10200000C168C943490605D46FF04001016120460B
:1020100000F01EF820680169C94389060BD4C16825
:10202000C943890607D46FF0200101612046BDE84D
:102030007040FFF71FBF70BD7047704700680349CD
:10204000884201D1FFF702BB704700000014004036
:102050007047704770B5026804461068D1685369CC
:1020600010F00F0F52D003F0010501F490762E43CB
:102070005FD0C20705D0CA0503D5E26B42F001026A
:10208000E263420705D5DA0703D0E26B42F00202B1
:10209000E263820705D5DA0703D0E26B42F004025F
:1020A000E263020707D501F020022A4303D0E26B66
:1020B00042F00802E263E26B002A33D0800604D5C6
:1020C000880602D5204601F0FFF820684069E16BE0
:1020D000C0F38010090700D428B3204601F0E6F8C9
:1020E0002068416949061AD5416921F040014161E2
:1020F000606BA0B11B490165606BFFF73BF90028DD
:1021000010D0606B016DBDE870400847830610D5A4
:102110008B060ED52046BDE8704001F0D5B82046AC
:10212000FFF797FF70BD2046FFF793FF0020E063A5
:1021300070BD030606D50B0604D52046BDE87040E9
:1021400001F0A2B94006F3D54806F1D5D168204682
:1021500021F04001D160202184F8391000F022F9EB
:1021600070BD00009D32000870B5040004D094F8E2
:102170003900002510B106E0012070BD84F8385008
:10218000204600F023F8242084F839002068C16834
:1021900021F40051C160204601F0E2F82068016995
:1021A00021F4904101612068416921F02A014161D7
:1021B0002068C16841F40051C160E563202084F8C3
:1021C000390084F83A00002070BD0000F0B587B0F7
:1021D000044614216846FEF7CEF83D4B27680022DE
:1021E0003C490224032507263B489F4221D1394B15
:1021F00014331F6847F010071F601B6803F01003BB
:1022000005930B6843F001030B60096802AB01F012
:10221000010105916902CDE9001483E86400694673
:10222000FFF720F9002205212520FFF795FA252048
:1022300024E0284BDFF8A4C01033674522D11F6883
:1022400047F400371F601B6803F4003305930B68E5
:1022500043F001030B60096802AF01F00101059131
:102260000C21CDE9001487E864006946FFF7FAF80D
:10227000002205212620FFF76FFA2620FFF75EFADD
:1022800007B0F0BD16488742FAD1186840F48020A4
:102290001860186800F480200590086840F002007B
:1022A0000860086802AF00F0020005904FF440603B
:1022B000CDE9000487E8640069460A48FFF7D2F8D0
:1022C000002205212720FFF747FA2720D6E7000044
:1022D000001001403038024000000240004400403D
:1022E000004800400004024070472DE9F8430446CE
:1022F00090F839001F4616460D46202850D1B5B13A
:10230000AEB194F8380001284AD0012084F8380092
:102310004FF00008C4F83C80212084F83900FFF712
:102320008FF9A6848146E68484F8388026E001206F
:10233000BDE8F883E08C401EE084A0684B46B0F511
:10234000805F4FF000024FF080012046009703D0DD
:1023500001F0CBF8E8B90DE001F0C7F8C8B928885A
:102360002168C0F308004860206908B16D1C05E0D1
:10237000AD1C03E0216815F8010B4860E08C0028D3
:10238000D8D14B46002240212046009701F0ADF8FD
:1023900008B10320CCE7202084F839000020C7E7EB
:1023A0000220C5E77047FEE770B500F097F80D4CC6
:1023B00000224FF400712046FFF73CF9012215027C
:1023C00029462046FFF736F9012000F00DF80022DB
:1023D00029462046FFF72EF9BDE87040012000F0A5
:1023E00003B800000004024000EB40004FF6FF710C
:1023F00001EA4000401E80B2FCD2704770B500F088
:102400006DF80C4C012251022046FFF713F901220E
:10241000150229462046FFF70DF90120FFF7E4FFDA
:10242000002229462046FFF705F9BDE8704001204B
:10243000FFF7DABF000402402DE9F0478046002490
:1024400000F036F8194F00254FF480764FF40079EC
:10245000002231463846FFF7EDF80120FFF7C4FFB0
:10246000012231463846FFF7E5F86006040E49467A
:102470003846FFF7D3F808B1641CE4B20120FFF737
:10248000B3FF6D1CEDB2082DE2D300223146384671
:10249000FFF7D0F8B8F1000F02D0FFF785FF01E099
:1024A000FFF7ACFF2046BDE8F087000000040240C3
:1024B00000B585B014216846FDF75DFF4FF400704C
:1024C000009000200190029003200390694602488A
:1024D000FEF7C8FF05B000BD0004024000B585B09E
:1024E00014216846FDF747FF4FF40070009001206B
:1024F0000190002002900320039069460248FEF7F5
:10250000B1FF05B000BD0000000402402DE9F0411C
:102510000546FFF7E3FF164F4FF480760022314661
:102520003846FFF787F800244FF40078280601D5D5
:10253000012200E0002241463846FFF77BF868069A
:10254000050E0120FFF750FF012231463846FFF704
:1025500071F80120FFF748FF002231463846FFF7A7
:1025600069F8641CE4B2082CE0D3BDE8F0810000F7
:102570000004024070B5FFF7B1FF01220E4D540276
:1025800021462846FFF756F8012216023146284612
:10259000FFF750F80120FFF727FF002221462846C9
:1025A000FFF748F80120FFF71FFF002231462846B9
:1025B000FFF740F8012070BD0004024070B5FFF73E
:1025C0008DFF104D4FF48074002221462846FFF7FE
:1025D00031F86600002231462846FFF72BF801202B
:1025E000FFF702FF012221462846FFF723F80122C8
:1025F00031462846FFF71EF8BDE870400120FFF77E
:10260000F3BE0000000402402DE9F0410122164D06
:1026100056024FF47A7431462846FFF70BF8FFF75D
:1026200047FF0120FFF7E0FE012217023946284646
:10263000FFF700F80120FFF7D7FE08E0641E24042E
:10264000240C04D0FFF7BAFFFF20BDE8F08131462B
:102650002846FEF7E3FF0028F0D10022394628463D
:10266000FEF7E8FF0020F0E7000402400548C168DB
:102670000548012903D001224021FEF7DBBF0022DB
:10268000FAE70000D04B00200014024010B50446C9
:102690002DED048B90ED0C0A80ED090A90ED0D1ADA
:1026A00080ED0A1AD0ED0E0ADFED581A20EE000A6E
:1026B00070EEA10A01EE010AC0ED0B0A00EEA00ABD
:1026C00010EE100AFEF723F841EC100B01F014FE97
:1026D00051EC100BFEF746F808EE100AD4ED0A0A8A
:1026E00080EE880A10EE100AFEF711F841EC100B8C
:1026F00001F026F951EC100BFEF734F8E063D4ED4D
:10270000090A80EE880A10EE100AFEF700F841EC84
:10271000100B01F015F9F0EE609ADFED3D0AB0EE16
:10272000409A88EE200A10EE100AFDF7F0FF41EC07
:10273000100B00F059FF53EC192B51EC100BFDF767
:10274000D3FEFEF70FF868EE080A9FED321A2064F8
:1027500080EE810AF7EE000A30EEC00A10EE100A91
:10276000FDF7D5FF41EC100B00F03EFF51EC100BD4
:10277000FDF7F8FF94ED0F1A9FED270A00EE900A7F
:1027800021EE001A84ED0F1AD4ED101A21EE802AE2
:1027900020EE800ADFED210A84ED102A70EEC01AC7
:1027A000DFED1F0AC4ED111A94ED070AB8EEC00A56
:1027B00020EE011A94ED040AB8EEC00A01EE200AD8
:1027C000BDEEC00A84ED010A94ED080AB8EEC01A05
:1027D000B8EEC00A21EE022A94ED051AB8EEC11A2D
:1027E00002EE201ABDEEC11A84ED021A20EE211A63
:1027F00094ED060AB8EEC00A01EE200ABDEEC00A4A
:1028000084ED030ABDEC048B10BD00003333AD42F0
:102810000000C84200409C454E62664200003443BE
:10282000986E5A4010B50848FFF730FF06484C3004
:10283000FFF72CFF04489830FFF728FF0248BDE857
:102840001040E430FFF722BF2C4C0020F0B5604F61
:1028500097ED000AB8EEC00AFEF732F9A7F59874B2
:10286000002104F14C025B4E04F1980502F198033B
:10287000022821DA97ED010AB8EEC00AFEF720F926
:10288000022819DA97ED020AB8EEC00AFEF718F925
:10289000022811DA316084F8491085F8491082F86D
:1028A000491083F849109FED4C0A84ED0E0A85ED1E
:1028B0000E0A82ED0E0A86E030682427401C306044
:1028C00094F849C084F84AC095F849C085F84AC0D0
:1028D00092F849C082F84AC093F849C083F84AC0C8
:1028E0004FF0010C242817DA84F849C085F8491004
:1028F00082F8491083F84910122801DBC0F1240046
:102900006FF02701484390FBF7F000EE100AB8EE95
:10291000C00A84ED0E0AF0BD48281BDA84F849107D
:1029200085F849C082F8491083F84910362803DA3F
:102930006FF02701243803E0C0F148006FF0270151
:10294000484390FBF7F000EE100AB8EEC00A85EDA0
:102950000E0AF0BD6C281BDA84F8491085F849107E
:1029600082F849C083F849105A2803DA6FF027012A
:10297000483803E0C0F16C006FF02701484390FB3A
:10298000F7F000EE100AB8EEC00A82ED0E0AF0BDB4
:1029900090281BDA84F8491085F8491082F849100C
:1029A00083F849C07E2803DA6FF027016C3803E012
:1029B000C0F190006FF02701484390FBF7F000EE64
:1029C000100AB8EEC00A83ED0E0AF0BD3160F0BD0A
:1029D0005C4D00200C0100200000000010B5184BD9
:1029E00000220121174804F023FC174C4FF4FA7120
:1029F000606104F05FFC124A0021B43A134804F00D
:102A0000C5FB0F4A2060903A0021114804F0BEFB3C
:102A10000B4A60606C3A00210E4804F0B7FB084A8C
:102A2000A060483A00210C4804F0B0FB044AE06082
:102A3000243A0021094804F0A9FB206110BD0000E0
:102A4000948D0008A564000800000020457C000863
:102A50004D640008315500080D7C0008E92F00087E
:102A600000B587B01C216846FDF785FC17484FF07C
:102A70002041102201601649416006218160002139
:102A8000C160C0E904128161C16113020162C0E941
:102A90000913C162016341638163416405200090B1
:102AA0000F200190072002900120CDE903021120A0
:102AB000CDE90501002269460448FFF7ADF9002879
:102AC00001D0FEF7EAFB07B000BD0000480100207E
:102AD000040100A02DE9F04387B014216846FDF7FA
:102AE0004AFC40480024016841F02001016001686F
:102AF00001F020010591016841F080010160016849
:102B000001F080010591016841F004010160016854
:102B100001F004010591016841F0010101600168C3
:102B200001F001010591016841F040010160016877
:102B300001F040010591016841F010010160016858
:102B400001F010010591016841F002010160016886
:102B500001F002010591016841F00801016000687F
:102B6000214F00F008004FF4E0750590012229463E
:102B70003846FEF75FFDDFF87480012209214046E8
:102B8000FEF758FDDFF868904FF440760122314699
:102B90004846FEF74FFD00950125CDE901546946F1
:102BA00038460394FEF75EFC0220CDE90240009512
:102BB000694601954046FEF755FC08200090CDE996
:102BC0000154694640460394FEF74CFC0320CDE9CE
:102BD0000240CDE9006569464846FEF743FC07B070
:102BE000BDE8F08330380240001402400008024083
:102BF000000402400F4810B50D4901604FF4827186
:102C0000416000218160C1604FF400720161C0E940
:102C10000512C1610162416281620A21C162FFF74E
:102C200087F8002803D0BDE81040FEF736BB10BD82
:102C300000300140980100200C4810B50A4901609D
:102C40004FF4E1214160002181600C22C160C0E9A4
:102C500004128161C161FFF787FA002803D0BDE843
:102C60001040FEF71ABB10BD00100140F00100201B
:102C70000C4810B50A4901600B4941600021816090
:102C80000C22C160C0E904128161C161FFF76CFAD6
:102C9000002803D0BDE81040FEF7FFBA10BD0000C9
:102CA000004400403002002080841E000C4810B513
:102CB0000A4901604FF4E1314160002181600C223A
:102CC000C160C0E904128161C161FFF74DFA0028BB
:102CD00003D0BDE81040FEF7E0BA10BD0048004048
:102CE00070020020FEE70000F0B54F4B014624269D
:102CF00018685A6800EE100A54009A68450052009D
:102D0000B8EEC00AFDF7DCFE0027022816DA93EDC4
:102D1000010AB8EEC00AFDF7D3FE02280EDA93EDE1
:102D2000020AB8EEC00AFDF7CBFE022806DA9FEDD4
:102D30003F0A81ED0C0A81F84870F0BD91F84930E6
:102D400091F84A00834201D081F8487091F8480018
:102D5000374F401CC0B281F8480007F14C0C012BE2
:102D60002BD0002BE9D100FB05F35E006C2396FB12
:102D7000F3F6AD1B00EE105A00FB04F56D0095FB59
:102D8000F3F5B8EEC00A641BB94281ED0C0A00EEFF
:102D9000104AB8EEC00A81ED0D0A01D0614537D165
:102DA0005043400090FBF3F0B2EB000000EE900ABD
:102DB000F8EEE00A30EE800A27E000FB05F35B0046
:102DC00093FBF6F35B1B00EE103A00FB04F35B0091
:102DD00093FBF6F3B8EEC00A1B1BB94281ED0C0A57
:102DE00000EE103AB8EEC00A81ED0D0A01D061453F
:102DF00005D15043400090FBF6F0801AD6E75043CF
:102E0000400090FBF6F0801A07E081ED0D0AF0BD5E
:102E10005043400090FBF3F0101A00EE900AF8EED9
:102E2000E00A30EE600AF0E75C4D00200000000090
:102E30002C4C00207047000010B5634C2DED0A8B20
:102E400088B007A804F1260106AB02AACDE900402C
:102E5000881F02F0CBFC2088C0057CD59DED020ABE
:102E6000F8EEC00A9FED590AB8EE009AB0EE008A5B
:102E700060EE800AC4ED010A9DED031A60EE880A37
:102E8000B8EEC11A61EE001AC4ED021A9DED041AE3
:102E900061EE891AB8EEC11A21EE001A84ED031A08
:102EA0009DED052AB8EEC22A22EE000A84ED040A3E
:102EB00021EE800A00EE810A10EE100AFDF727FCD1
:102EC00041EC100B00F03CFD9FED41AB51EC100BC1
:102ED00053EC1A2BFDF70EFBFDF744FC6061D4EDBB
:102EE000028A28EE890A60EE280A94ED030A20EE91
:102EF00008BA4BEE400AB7EE000A30EE800A10EE38
:102F0000100AFDF704FC94ED040AD4ED010A41EC2B
:102F1000190B2BEE000A60EE880A00EEA80A10EEEC
:102F2000100AFDF7F4FB41EC100BB0EE491AF0EE7D
:102F3000691A01F021F89FED281B51EC100B53EC9E
:102F4000112BFDF7D7FAFDF70DFCE06194ED01CAF6
:102F50002CEE0C0A00E032E094ED029AD4ED038AE4
:102F6000D4ED049A09EE090A08EEE80A09EEE90A26
:102F700010EE100AFDF7CBFB29EE280A41EC1B0BE3
:102F80000CEE290A20EE080A10EE100AFDF7BFFB2E
:102F900041EC100BB0EE4B1AF0EE6B1A00F0ECFFA8
:102FA00053EC1A2B51EC100BFDF7A4FA9FED0C1B00
:102FB00053EC112BFDF79BFAFDF7D4FBA06108B091
:102FC000BDEC0A8B10BD0000A8000020000080307E
:102FD0006666666666A64C406666666666A64CC011
:102FE00033333333333323401FB54FF4FA6004F0E7
:102FF0007BF8DFF86090DFF860A0DFF860B0DFF802
:10300000608000BFD9F80000FDF781FB06460F463F
:10301000DAF80000FDF77BFB04460D46DBF8000004
:10302000FDF775FB8DE8F00041EC100B0DA053ECA3
:10303000102B00F0A1FAD8E9022311A0D8F804104F
:1030400000F09AFA12A000F097FA642004F04CF80D
:10305000D8E70000C4000020BC000020C000002011
:103060002C4C00205961773A256609205069746319
:10307000683A25660920526F6C6C3A25660A000092
:103080002564090920256409092025640A00000037
:103090000A0A0A0A0A0A0A0A0A0A0A0A0A000000AE
:1030A0000E4B10B51E220321181F04F055FE0B4BCA
:1030B0001E224C330321181F04F04EFE074B1E2224
:1030C00098330321181F04F047FE044B1E22E433FB
:1030D0000321BDE81040181F04F03EBE304C002014
:1030E00010B5502080F31188BFF34F8FBFF36F8F5F
:1030F00005F022FC18B104494FF080500860002010
:1031000080F3118810BD000004ED00E030B593B0ED
:1031100030216846FDF72FF914210CA8FDF72BF993
:103120001A480025016841F080510160006800F0F4
:10313000805011901648016841F480410160006898
:10314000022400F4804011900120009000040190BE
:103150008001CDE90640192008904FF4A870CDE910
:10316000090404200B906846FEF734FC0CA90F20DC
:1031700081E831004FF4A0500F90E002109005213B
:103180000CA8FEF71BFB13B030BD00004038024016
:10319000007000400548016841F470010160034976
:1031A0004FF00060803908607047000088ED00E053
:1031B0000148FEF78EBE0000B0020020F0B50268A4
:1031C000254C264D264E274F274B4FF0804CA042D2
:1031D00009D0604507D0A84205D0B04203D0B8421C
:1031E00001D0984204D122F0700E4A6842EA0E02E1
:1031F000A0421BD0604519D0A84217D0B04215D0CC
:10320000B84213D0984211D0184DA8420ED0184D94
:10321000A8420BD0174DA84208D0174DA84205D0A0
:10322000164DA84202D0164DA84203D122F4407593
:10323000CA682A434D6922F080022A4302608A68E4
:10324000C2620A688262A04201D0984201D1096933
:10325000016301214161F0BD000001400004004014
:1032600000080040000C0040000401400040014004
:10327000004401400048014000180040001C00408C
:103280000020004010B504F099FC002805D0D0E9DA
:103290000021BDE810400846104710BD10B5806BF6
:1032A0000021C185C184FEF7D4FE10BD0168CA6843
:1032B00022F49072CA6001684A6922F001024A61F0
:1032C000202180F83A10704710B590F83A10222962
:1032D00001D0022010BD8168B1F5805F11D0016975
:1032E000002901681FD0496801F07F03816A4A1CE8
:1032F00082620B70C18D491E0904090CC18518D06A
:103300002BE00269816A002A0268526805D0D2B2B5
:103310000A80816A491C8162ECE7C2F308020A80D4
:10332000816A891CF7E74A68816A4B1C83620A70CC
:10333000E0E70168CA6822F02002CA600168CA6832
:1033400022F48072CA6001684A6922F001024A616F
:10335000202180F83A10FEF7C7FF002010BD0000C2
:103360002DE9F041044600680169E26821F440510A
:10337000114301612169A068E26908436169114351
:1033800008432168CA6849F20C639A430243CA6041
:1033900020684169A26921F4407111434161E069EB
:1033A000192764253226B0F5004F354A3549206883
:1033B0004FF0000806D0884201D0904236D1FEF787
:1033C000C7FA35E0884201D0904202D1FEF7C0FA38
:1033D00001E0FEF7ADFA61684A18A0FB070148EB6F
:1033E0000803FCF74DFF0146B0FBF5F00201B1FB0D
:1033F000F5F06FF01803584301EB800006EBC000B6
:10340000B0FBF5F000F0F80002EB4002B1FBF5F084
:10341000584301EB800006EBC000B0FBF5F000F074
:103420000700216810448860BDE8F081FEF780FA4B
:1034300061688B0F8A00A0FB0701FCF721FF0146A2
:10344000B0FBF5F06FF01802504301EB800006EB83
:103450000010B0FBF5F000F0F002B1FBF5F002EB6C
:103460000012B1FBF5F06FF01803584301EB800038
:1034700006EB0010B0FBF5F000F00F00D1E7000004
:10348000001401400010014090F83910212901D0AA
:10349000022070478168B1F5805F016A0BD04A1C39
:1034A0000262026809785160C18C491E0904090C46
:1034B000C1840ED017E009880268C1F30801516089
:1034C00001690029016A02D0491C0162ECE7891CEC
:1034D000FBE70168CA6822F08002CA600068C16820
:1034E00041F04001C160002070472DE9F04198464D
:1034F00017460E460446069D1DE0681C1BD02DB1E4
:10350000FEF79EF8A0EB0800A84214D92068C16815
:1035100021F4D071C1602068416921F0010141614D
:10352000202084F8390084F83A00002084F838001C
:103530000320BDE8F0812068006836EA000004D06E
:103540000020B842D9D00020F3E70120F9E70000BD
:103550000148FEF77FBD0000F00100200148FEF7A2
:1035600079BD0000300200200148FEF773BD000065
:1035700070020020FEE700000FB4054B10B503A950
:10358000044A029801F0ECFB10BC5DF814FB00004B
:10359000D55E00084001002003B401984100009866
:1035A00050EAC12018BF04204A0D18BF40F00100A6
:1035B00040F2FF72B2EB515F08BF40F002000128F9
:1035C00008BF052002B070470907090E002804DB78
:1035D00000F1E02080F80014704700F00F0000F1C7
:1035E000E02080F8141D704710B5B94A2DED020B8C
:1035F0002DED0C8B82B00F9921F000409FEDB6CBE2
:1036000090422CDBA0F140530E9AA3F17F631A4342
:103610000FD0B349884202DC16D10E98A0B19DEDBF
:103620000E0B02B0BDEC0C8B02B0BDE8104001F0F7
:103630008BBA0029C1BF9FEDAC0B02B0BDEC0C8B67
:1036400002B0C8BF10BD16E0012001F0C1FA02B0FF
:10365000BDEC0C8B02B0BDE8104001F089BAA44A61
:103660009FEDA59B9FEDA6AB90425EDAA6499FED2C
:10367000A8CB814208DBB0EE4C0AF0EE6C0A02B037
:10368000BDEC0C8B02B010BD9DED0E0B53EC102B5E
:1036900051EC100BFCF72EFF41EC180B9E48062155
:1036A000B0EE480AF0EE680A784401F039F953ECBC
:1036B000182B51EC100BFCF71DFF41EC1B0B97482E
:1036C000B0EE480AF0EE680A0421784401F028F9C7
:1036D00053EC182B51EC100BFCF70CFF53EC192B8F
:1036E000FCF761FE41EC100B51EC1B0B53EC102B63
:1036F000FCF772FF41EC100B53EC102B9DED0E0B01
:1037000051EC100BFCF7F6FE53EC1A2BFCF7EFFE16
:103710009DED0E1B53EC112BFCF7E9FE53EC1C2B1B
:10372000FCF7E5FE41EC100BA9E79FED7D8B9FEDCB
:103730007EBB9DED0E0B002953EC192B51EC100BA9
:1037400052DAFCF730FE53EC182BFCF7D3FE41ECB9
:10375000180B77480621B0EE480AF0EE680A784464
:1037600001F0DEF853EC182B51EC100BFCF7C2FE05
:1037700041EC1D0B6F48B0EE480AF0EE680A0421D8
:10378000784401F0CDF853EC182B51EC100BFCF7FA
:10379000B1FE53EC192BFCF706FE41EC190B51EC72
:1037A000180B04F03BFB41EC180B53EC192B51ECBC
:1037B0001D0BFCF711FF53EC182BFCF79BFE53EC91
:1037C0001A2BFCF791FE41EC100B51EC180B53EC4B
:1037D000102BFCF7E8FD53EC1B2BFCF78BFE53EC96
:1037E0001C2BFCF784FE6DE0FCF781FE53EC182BDC
:1037F000FCF780FE41EC180B04F010FB41EC1A0BB7
:1038000000208DED00AB00909DED000B51EC1A0BEC
:1038100053EC102BFCF7C7FD9DED000B41EC1C0B8E
:1038200053EC102B51EC100BFCF764FE53EC182BEF
:10383000FCF75DFE53EC1C2BFCF7CEFE41EC1C0BA1
:103840003D48B0EE480AF0EE680A0621784401F0DF
:1038500067F853EC182B51EC100BFCF74BFE41ECC6
:103860001D0B3648B0EE480AF0EE680A0421784491
:1038700001F056F853EC182B51EC100BFCF73AFE04
:1038800053EC192BFCF78FFD41EC100B51EC1D0B89
:1038900053EC102BFCF7A0FE53EC1A2BFCF72AFE7E
:1038A00053EC1C2BFCF77FFD41EC100B53EC102B61
:1038B0009DED000B51EC100BFCF775FD53EC1B2B31
:1038C000FCF718FE41EC100BD9E6000000000000E8
:1038D0000000F03F00000000182D4454FB21094077
:1038E0000000F07F00000000000000000000000069
:1038F0000000E03F00000000000000000000F03F7A
:10390000075C143326A6913C0000603C00000000D8
:10391000182D4454FB21F93F5C6300006A630000EA
:10392000000000000000E03F000000000000004038
:10393000A6620000B4620000B8610000C661000029
:1039400070B5C1482DED020B2DED0E8B82B0119D8F
:1039500025F000449FEDBEDB9FEDBFEB84423EDBD4
:10396000A4F140511098A1F17F6108430FD0BC48E9
:10397000844202DC28D1109830B39DED100B02B0C8
:10398000BDEC0E8B02B0BDE8704001F0DDB89DEDDE
:10399000100B53EC1D2B51EC100BFCF7ABFD9DED08
:1039A000100B41EC180B53EC1E2B51EC100BFCF7D9
:1039B000A1FD53EC182BFCF7F6FC41EC100B02B008
:1039C000BDEC0E8B02B070BD012001F001F902B018
:1039D000BDEC0E8B02B0BDE8704001F0C9B8A14843
:1039E0009FEDA18B844256DA9DED100BB4F1795F07
:1039F0000ADA51EC100BFFF7CFFD042808BF01F0E5
:103A0000C7F89DED100BDAE753EC102B51EC100BBF
:103A1000FCF770FD41EC190B95480621B0EE490A00
:103A2000F0EE690A784400F07BFF53EC192B51EC5F
:103A3000100BFCF75FFD41EC1A0B8E48B0EE490A03
:103A4000F0EE690A0421784400F06AFF53EC192B68
:103A500051EC100BFCF74EFD53EC182BFCF7A3FCBC
:103A600041EC100B51EC1A0B53EC102BFCF7B4FD8E
:103A7000CDE900019DED000B53EC102B9DED100BDB
:103A800051EC100BFCF736FD9DED101B53EC112B88
:103A9000FCF789FCD2E09DED100B51EC100B02F00D
:103AA0000DFA53EC182BFCF722FD9FED730BCDE9BB
:103AB000000153EC102B9DED000B51EC100BFCF7AB
:103AC00019FD41EC190B6E480621B0EE490AF0EEE3
:103AD000690A784400F024FF53EC192B51EC100BC9
:103AE000FCF708FD41EC1B0B6648B0EE490AF0EE0E
:103AF000690A0421784400F013FF53EC192B51ECB0
:103B0000100BFCF7F7FC53EC182BFCF74CFC41ECCA
:103B10001C0B51EC190B04F081F941EC180B5A48BD
:103B20009FED5BABA04222DC53EC1C2B51EC1B0B3A
:103B3000FCF752FDCDE900019DED000B51EC180B97
:103B400053EC102BFCF7D6FC53EC182BFCF72BFC9A
:103B500053EC1A2BFCF7CEFC53EC1D2BFCF7C4FCEA
:103B600053EC1E2BFCF7C3FC41EC100B5FE08DED1A
:103B7000008B002000909DED000B51EC180B53ECD6
:103B8000102BFCF710FC9DED000B41EC1E0B53ECD1
:103B9000102B51EC100BFCF7ADFC53EC192BFCF780
:103BA000A6FC53EC1E2BFCF717FD41EC190B53EC54
:103BB0001C2B51EC1B0BFCF70FFD41EC1B0B53ECCA
:103BC0001A2B51EC190BFCF795FC53EC1D2BFCF751
:103BD0008EFC41EC190B53EC1A2B51EC180BFCF733
:103BE00089FC53EC1B2BFCF785FC53EC192BFCF7E1
:103BF0007BFC9DED000B41EC180B53EC1A2B51ECA8
:103C0000100BFCF777FC9FED249B53EC192BFCF772
:103C10006EFC41EC100B51EC180B53EC102BFCF725
:103C200063FC53EC192BFCF762FC41EC100B002DEC
:103C30003FF7C5AE51EC100B81F0004141EC100B89
:103C4000BDE60000000000000000F03F00000000A2
:103C5000075C143326A6913C182D4454FB21F93FF0
:103C60000000F07F0000E03F000000000000F03F97
:103C7000306000003E600000000000000000E03FF7
:103C8000825F0000905F00003333EF3F00000000D0
:103C90000000000000000040182D4454FB21E93FC3
:103CA00070B59B482DED020B2DED068B079D25F081
:103CB0000044A04218DC9748844202DC0AD10698EE
:103CC00040B19DED060BBDEC068B02B0BDE8704027
:103CD00000F03ABF002DCCBF9FED8F0B9FED900BF6
:103CE000BDEC068B02B070BD8F48A04215DD8F4839
:103CF000A042D8BF4FF0FF3458DD9DED060B51ECCC
:103D0000100BFFF749FC042808BF00F041FF9DEDB0
:103D1000060BBDEC068B02B070BD9DED060B51ECA1
:103D2000100B02F0CBF8CDE9060181489FED828BA4
:103D3000A0423CDD8248A0421FDD00249FED82AB03
:103D40009DED060B53EC1A2B51EC100BFCF72BFBE3
:103D50009DED060B41EC190B53EC1A2B51EC100B9B
:103D6000FCF7C8FB53EC182BFCF7BEFB53EC192BEC
:103D7000FCF732FCCDE9060149E09DED060B01247C
:103D800053EC182B51EC100BFCF70DFB9DED060BC3
:103D900041EC190B53EC182B51EC100BFCF7A4FB66
:103DA00053EC192BFCF718FCCDE906012FE068480D
:103DB000A0421FDD02249FED689B9DED060B53EC96
:103DC000192B51EC100BFCF795FB53EC182BFCF75F
:103DD000EAFA9DED060B41EC180B53EC192B51EC54
:103DE000100BFCF781FB53EC182BFCF7F5FBCDE92E
:103DF00006010CE09DED060B032453EC102B9FED08
:103E0000580B51EC100BFCF7E7FBCDE906019DEDDB
:103E1000060B53EC102B51EC100BFCF76BFB41EC39
:103E2000180B53EC182BFCF765FB41EC190B4E48B3
:103E30000621B0EE490AF0EE690A784400F070FD00
:103E400053EC182B51EC100BFCF754FB41EC180B06
:103E50004648B0EE490AF0EE690A0521784400F0C0
:103E60005FFD53EC192B51EC100BFCF743FB41ECBD
:103E7000100B51EC180B53EC102B002C0EDAFCF746
:103E800092FA9DED061B53EC112BFCF733FB9DEDD5
:103E9000061B53EC112BFCF72AFB35E0FCF783FAE9
:103EA0009DED061B53EC112BFCF724FB41EC100B92
:103EB0002F48784400EBC40090ED001B51EC100B30
:103EC00053EC112BFCF710FB9DED061B53EC112B53
:103ED000FCF70AFB41EC100B2648784400EBC400C9
:103EE00090ED001B51EC100B53EC112BFCF7FFFA7B
:103EF00041EC100B002DA2BFBDEC068B02B070BDD3
:103F000051EC100B81F0004141EC100B01E7000077
:103F1000000010440000F07F182D4454FB21F93FAD
:103F2000182D4454FB21F9BF0000DC3F0000203E67
:103F30000000F33F00000000000000000000F03F20
:103F40000000E63F0000000000000000000000400C
:103F50000080034000000000000000000000F83F67
:103F6000000000000000F0BFD25C0000885C000090
:103F7000125C0000CA5B000070B56B4E2DED040BA7
:103F80002DED028B82B0DDF81CC0DDE905235C421B
:103F90002CF000411C4341EAD474049D22F00040FF
:103FA000B44205D86C422C4340EAD474B4420BD9D5
:103FB0009DED061B9DED040B02B0BDEC028B04B021
:103FC000BDE8704000F0CABDACF14054A4F17F647C
:103FD0001C430BD0022404EAAC7444EAD2740543B7
:103FE0009FED538B9FED542B07D015E09DED040BF7
:103FF00051EC100B01F094FA42E0002C11BF012C9F
:104000009DED040B02B0BDEC028B04BF04B070BD8B
:10401000022C38D0032C3BD00B439FED491B9FED66
:104020004A0B0AD0B14218D1B04209D121F08041E7
:1040300020F08040079105900FE0002A15DA10E08B
:10404000434B7B44002C08BF93ED000B0DD0012C9B
:1040500010D0022C17D0032C1AD0B0421DD1002A48
:1040600003DAB0EE410AF0EE610A02B0BDEC028B59
:1040700004B070BD93ED000B51EC100B81F00041CA
:1040800041EC100BF1E7B0EE480AF0EE680AECE7FD
:10409000B0EE420AF0EE620AE7E7401A00153C284B
:1040A000C8BF8DED000B19DCBCF1000FBEBF10F1D5
:1040B0003C0F9FED290B8DED000B0FDB9DED060BEB
:1040C00053EC102B9DED040B51EC100BFCF784FA14
:1040D00001F0F4FE01F024FACDE90001002C08BF44
:1040E0009DED000BC1D0012C10D0022C9FED1C0BBC
:1040F00053EC102B9DED000B51EC100B0DD0FCF789
:10410000F3F953EC182BFCF7EFF9B9E7019880F0BD
:10411000004001909DED000BA7E7FCF7E5F953EC9B
:10412000182BFCF7E4F9ABE70000F07F000000007B
:10413000182D4454FB210940182D4454FB2109C07B
:10414000182D4454FB21F9BF182D4454FB21F93F8D
:104150002A5B0000000000000000000000000000DA
:10416000075C143326A6A13C10B52F499FED2C1BEC
:104170002DED020B84B0059820F000408842D8BF96
:104180009DED040B2DDD2949884209D1049840B9E1
:104190004FF0010000F01CFD00F0EAFC06B010BD7D
:1041A00005DB9DED040B00F0CFFC06B010BD6846AA
:1041B0009DED040B00F0E0F810F0030004BF9DED4E
:1041C000021B9DED000B0CD001280ED09DED021BB3
:1041D0009DED000B022817D0012000F01DFC06B059
:1041E00010BD00F0E5FA06B010BD9DED021B9DED7F
:1041F000000B012000F010FC51EC100B81F000418D
:1042000006B041EC100B10BD00F0D2FA51EC100BCF
:1042100081F0004106B041EC100B10BD0000000021
:104220000000000000000000FB21E93F0000F07FDB
:1042300010B52F499FED2C1B2DED020B84B0059876
:1042400020F000408842DCBF00209DED040B32DDF1
:104250002849884209D1049840B94FF0010000F084
:10426000B7FC00F085FC06B010BD05DB9DED040B2E
:1042700000F06AFC06B010BD68469DED040B00F02E
:104280007BF810F0030011D0012818D09DED021B1F
:104290009DED000B02281AD000F08AFA51EC100BA9
:1042A00081F0004106B041EC100B10BD9DED021BEA
:1042B0009DED000B012000F0AFFB06B010BD9DEDA1
:1042C000021B9DED000B00F073FA06B010BD01203B
:1042D00000F0A2FB51EC100B81F0004106B041EC64
:1042E000100B10BD000000000000000000000000E6
:1042F000FB21E93F0000F07F00B52DED048BB0EE0F
:10430000409AF0EE609A83B051EC190BFCF721FB58
:1043100041EC180B18EE100A18EE901A8DED008B78
:10432000002818BF0120084320F00040C0F17F6042
:1043300000F1E040C00F14D019EE101A19EE900AE7
:104340008DED009B002918BF0121084320F000409B
:10435000C0F17F6000F1E040C00F04BF012000F019
:1043600037FCB0EE480A03B0F0EE680ABDEC048BEF
:1043700000BD0000000000002DE9F14F04462DEDC6
:10438000020B2DED088B8AB09FEDE70B80ED020B41
:10439000139EE74826F0004585420ADC9DED120B8E
:1043A000002084ED000B0AB0BDEC088B03B0BDE823
:1043B000F08FE0489FEDE0AB9FEDE1BBA84247DD09
:1043C000E14F9FEDE39B9FEDE48B9DED120B53ECD2
:1043D0001A2B51EC100B002E1CDDFCF785F841EC7C
:1043E000100BBD4208D053EC1B2B51EC100BFCF70B
:1043F0007BF8C4E900010BE053EC192B51EC100BD6
:10440000FCF772F853EC182BFCF76EF8C4E90001C6
:104410000120C8E7FBF7C7FF41EC100BBD4208D0F5
:1044200053EC1B2B51EC100BFBF7BDFFC4E9000153
:104430000BE053EC192B51EC100BFBF7B4FF53ECD2
:10444000182BFBF7B0FFC4E900014FF0FF30AAE7DB
:10445000C348A84279DB9DED120B51EC100B01F023
:104460002DFD41EC180B9FEDC00B53EC102BFCF70E
:1044700041F89FEDBF1B53EC112BFBF794FFFCF7AA
:1044800027F90746FCF7E0FA41EC190B53EC1A2B1D
:10449000FCF730F853EC182BFCF729F841EC180B1B
:1044A00053EC1B2B51EC190BFCF724F8DFF8C8A2D6
:1044B00041EC100B4FEA15580125FA4453EC102B30
:1044C00051EC180BFCF710F8032DC4E900013DD0A6
:1044D000C1F30A5005EB4511A8EB000011398142E8
:1044E00034DA0AEB051BB0EE48AA9BED000BF0EEA8
:1044F00068AA53EC102B51EC190BFBF7FBFF41ECB6
:104500001B0B51EC1A0B53EC1B2BFBF7EDFF41EC93
:10451000180B51EC1A0B53EC182BFBF7E5FF53EC7F
:104520001B2BFBF7E1FF9BED020B41EC1A0B53EC4D
:10453000102B51EC190BFBF7DDFF53EC1A2BFBF79B
:10454000D3FF41EC100B6D1CB8E70EE0002EA8BFA6
:104550003846BFF628AF94ED000B51EC100B81F0FC
:104560000041C4E9000178421DE7C6F3130040F49E
:10457000801EC6F30A50A0F2F530471100F01F0567
:10458000C5F12000DDF848B00890002006900790A3
:104590000520EC467949002D07EB0002794408BF5D
:1045A00051F8221009D051F8223001EB8201AB40C2
:1045B0004A68089922FA01F11943A1FB0E26A1FBD2
:1045C0000B131A449A4234BF0123002303EB06085D
:1045D0000CEB8003D3E901A60E448E4234BF0121C7
:1045E000002192448A4411B1924502D903E09245D8
:1045F00001D2012100E00021C3E901A641444CF8A9
:104600002010011EA0F10100C4DC029800F100504E
:10461000850F0298DDE903678000DDF81480FCF760
:1046200013FA41EC1A0B3046FCF745F89FED541B8A
:1046300053EC112BFBF75EFF41EC1B0B3846FCF7EC
:104640003AF89FED511B53EC112BFBF753FF41EC54
:10465000180B4046FCF72FF89FED4D1B53EC112B28
:10466000FBF748FF41EC190B51EC180B53EC192BDD
:10467000FBF799FE53EC1B2BFBF795FE53EC1A2B23
:10468000FBF791FECDE90801002008909DED080B95
:1046900053EC1A2B51EC100BFBF726FF53EC1B2BA2
:1046A000FBF722FF53EC182BFBF71EFF53EC192BE3
:1046B000FBF71DFF9FED381B53EC112BFBF71AFF87
:1046C0009FED370B41EC180B53EC102B9DED080BB5
:1046D00051EC100BFBF70EFF53EC182BFBF763FEAE
:1046E0009FED310B41EC180B53EC102B9DED080B9B
:1046F00051EC100BFBF7FEFE53EC182BFBF753FEAF
:1047000041EC100B139810F0004F06D06D4251ECA5
:10471000100B81F0004141EC100B284684ED000B9A
:1047200041E6000000000000000000000000000062
:10473000FB21E93F7CD9024000004054FB21F93FB6
:104740003163621A61B4D03DFB21F93F00000000E3
:104750000000601A61B4D03D7370032E8A19A33B28
:10476000FB2139410000000083C8C96D305FE43F80
:10477000000000000000E03FBA56000008560000AC
:10478000000000000000103E000000000000103C8F
:10479000000000000000103A182D4454FB21F93DA0
:1047A0003326A611460B113C00000054FB21F93DB5
:1047B00010B52DED040B2DED088B82B0B0EE419AB3
:1047C000F0EE619A0B9820F000449FED4BABB4F1F2
:1047D000795F11DA9DED0A0B51EC100BFBF778FFB6
:1047E000002801BFB0EE4A0AF0EE6A0A02B0BDEC42
:1047F000088B04BF04B010BD9DED0A0B53EC102BC9
:1048000051EC100BFBF776FE41EC180B3C480621EF
:10481000B0EE480AF0EE680A784400F081F853ECF4
:10482000182B51EC100BFBF765FE9DED0A0B41ECCC
:104830001B0B53EC192B51EC100BFBF75BFE41ECFF
:10484000190B53EC1B2B51EC180BFBF753FE53ECDD
:10485000192BFBF749FE9FED2C0B41EC190B53EC88
:10486000102B51EC180BFBF745FE41EC100B2848C0
:10487000844210DA53EC192B51EC100BFBF734FE89
:1048800053EC1A2BFBF733FE41EC100B02B0BDECDE
:10489000088B04B010BD1F48A042BCBF9FED1E1B7B
:1048A0008DED001B06DBA4F50010019000200090A8
:1048B0009DED001B51EC100B53EC112BFBF714FE7C
:1048C0009DED000B41EC180B53EC102B51EC1A0B27
:1048D000FBF70AFE41EC1A0B53EC192B51EC180BA9
:1048E000FBF702FE53EC1A2BFBF701FE41EC100B19
:1048F000CCE7000000000000000000000000F03FD6
:104900002453000000000000000000000000E03F11
:104910003333D33F0000E93F000000000000D23FE6
:1049200070B504462DED028B4D1E00EBC500B0EEB8
:10493000408AF0EE608A90ED000B35F0060017D04B
:1049400053EC182B51EC100BFBF7D4FD41EC100B82
:104950006D1E04EBC50090ED001B51EC100B53ECE9
:10496000112BFBF720FD41EC100B35F00600E7D1D1
:10497000022D36D0042D1CD0062D1CBFBDEC028BA1
:1049800070BD53EC182B51EC100BFBF7B3FD94EDFD
:104990000A1B53EC112BFBF706FD53EC182BFBF70E
:1049A000A9FD94ED081B53EC112BFBF7FCFC41EC2B
:1049B000100B53EC182B51EC100BFBF79BFD94EDF7
:1049C000061B53EC112BFBF7EEFC53EC182BFBF7FB
:1049D00091FD94ED040B53EC102BFBF7E4FC41EC40
:1049E000100B53EC182B51EC100BFBF783FD94EDDF
:1049F000021B53EC112BFBF7D6FC53EC182BFBF7E7
:104A000079FD94ED001B53EC112BFBF7CCFCBDECB6
:104A1000028B41EC100B70BD31B504462DED040B3B
:104A20002DED0A8BB0EE41BAF0EE61BA0B989DED18
:104A30000A0B20F00040B0F1795F0DDA51EC100B59
:104A4000FEF7AAFD042808BF00F0A2F89DED0A0BAE
:104A5000BDEC0A8B05B030BD53EC102B51EC100BA4
:104A6000FBF748FD41EC180B9DED0A0B53EC182B9E
:104A700051EC100BFBF73EFD41EC190B2C48B0EE4E
:104A8000480AF0EE680A05217844FFF749FF9FEDD8
:104A90002ACBB0EE40AAF0EE60AA9CB353EC1C2BDC
:104AA00051EC190BFBF726FD41EC1C0B53EC1A2BB8
:104AB00051EC190BFBF71EFD9FED210B41EC190B7F
:104AC00053EC102B51EC1B0BFBF714FD53EC192B83
:104AD000FBF70AFD53EC182BFBF70CFD53EC1B2BDB
:104AE000FBF702FD53EC1C2BFBF7FEFC9DED0A1BB4
:104AF00053EC112BFBF7FBFCBDEC0A8B05B041EC32
:104B0000100B30BDFFE753EC1A2B51EC180BFBF7E1
:104B1000F1FC53EC1C2BFBF746FC53EC192BFBF779
:104B2000E9FC9DED0A1B53EC112BFBF73CFCE3E782
:104B3000B451000000000000495555555555C5BFFA
:104B4000000000000000E03F10B553EC102B51ECCA
:104B5000100BFBF728FC41EC100B10BD10B553EC0B
:104B6000112B51EC100BFBF71EFC41EC100B10BD90
:104B70009FED050B10B553EC102B51EC100BFBF710
:104B80002BFD41EC100B10BD0000000000000000E8
:104B90009FED050B10B553EC102B51EC100BFBF7F0
:104BA000A9FC41EC100B10BD00000000000000103B
:104BB00002E008C8121F08C1002AFAD170477047E6
:104BC000002001E001C1121F002AFBD17047000044
:104BD0000149086070470000440100202DE9FF5F93
:104BE00082B00021DDE90430020DDDF840B003435E
:104BF00018D044F61050A2F2FF3242431514119817
:104C000001281FD0A5EB0B00401C5FEA000A4FF003
:104C100000064E4FDFF83891B046504615D5CAF120
:104C2000000413E0119801244AA3012801D16FEA7E
:104C30000B010298119AC0E90031C0E9024206B0A6
:104C4000BDE8F09FCBF10000DFE704460021404AB9
:104C5000491842EB0450CDE9001012E0E00707D0FC
:104C600032463B4640464946FBF744FC804689466F
:104C700032463B4610461946FBF73CFC06460F46BB
:104C80006410002CEAD1DDE90401DDE90023BAF16A
:104C9000000F06DAFBF72EFC42464B46FBF72AFCD8
:104CA00005E0FBF799FC42464B46FBF795FC0446B2
:104CB0000E460022284BFBF73DFD03D84FF0FF3096
:104CC000014607E00022254B20463146FBF76BFBEF
:104CD000FBF790FE102409E0002C0ADB0A220023D7
:104CE000FBF7CEFA039B30321A55641E50EA0102DC
:104CF000F2D1641C039AC4F111031444119A012ADD
:104D000003D0012208430DD10AE0084304D000205B
:104D10004FF0110B119072E7A3EB0B056D1E0DE028
:104D20005B4504DD4FF0000205F1010504E003DA04
:104D30004FF00002A5F10105002AECD0029811996C
:104D4000C0E90231C0E9004579E7000000001440E5
:104D50000000F03F300000000000F0430000E03FA2
:104D60002DE9FF4F95B09B468946064600250FE288
:104D7000252877D100242746F84A0121059400E030
:104D8000044316F8013F203B01FA03F01042F7D12B
:104D900030782A2811D06FF02F033078A0F130023C
:104DA000092A16D8059A44F0020402EB820203EBAA
:104DB00042021044761C0590EFE759F8042B059247
:104DC000002A03DA504244F40054059044F00204EF
:104DD000761C30782E2816D116F8010F44F0040402
:104DE0002A280DD06FF02F023078A0F13003092B64
:104DF00009D807EB870302EB4303C718761CF3E7D8
:104E000059F8047B761C30786C280FD006DC4C28CF
:104E100017D068280DD06A2814D104E0742810D067
:104E20007A280FD10DE044F400140AE044F4801411
:104E300001E044F440147278824202D104F58014F7
:104E4000761C761C307866280BD013DC582877D077
:104E500009DC002875D04528F6D04628F4D047282C
:104E60001AD19DE118E0632835D0642879D06528EF
:104E700012D195E1702873D008DC6728F1D0692839
:104E80006FD06E280DD06F2806D1B5E073282CD0D6
:104E9000752875D0782874D05A46179990476D1C9C
:104EA00075E1C4F30250022809D003280DD0D9F8C7
:104EB000001004280DD00D6009F1040967E1D9F84C
:104EC0000010EA17C1E90052F6E7D9F800100D808A
:104ED000F2E70D70F0E719F8041B8DF800100020C0
:104EE0008DF80100EA46012003E059F804AB4FF0C9
:104EF000FF3061074FF0000102D40DE008F101011D
:104F00008846B9420FDA8045F8DB1AF80810002904
:104F1000F4D108E008F1010188468142FADB1AF871
:104F200008100029F6D105985B46A0EB080721463A
:104F30003846179A00F094FA284400EB080507E079
:104F40004DE029E10DE01AF8010B5A4617999047F8
:104F5000B8F10108F7D25B4621463846179A13E1AB
:104F600042E00A220092C4F302524FF0000A022AE1
:104F700008D059F804CB032A4FEAEC710AD00DE0AF
:104F800029E02AE009F1070121F00702F2E802C155
:104F9000914609E00FFA8CFC4FEAEC71042A03D128
:104FA0004FFA8CFC4FEAEC71002907DA0A4600211F
:104FB000DCF1000C61EB02012D2202E0220504D598
:104FC0002B228DF80420012203E0E20701D02022E9
:104FD000F7E7904659E00A2102E010220DE0102187
:104FE0004FF0000A00910BE010224FF0000A44F04D
:104FF00004040827009203E008224FF0000A009200
:10500000C4F30252022A05D059F804CB0021032A26
:1050100008D009E009F1070121F00702F2E802C116
:10502000914605E01FFA8CFC042A01D10CF0FF0C1C
:105030004FF00008220728D5702806D0009B83F087
:10504000100353EA0A0305D00EE040228DF8042035
:10505000012208E05CEA010206D030228DF804202B
:105060008DF8050002229046009B83F0080353EA66
:105070000A030AD15CEA010201D1620705D5302298
:105080008DF804204FF001087F1E582804D034A06A
:1050900003900EA802900DE036A0F9E75346604653
:1050A000009AFBF7EDF884460398825C0298401E54
:1050B000029002705CEA0100F0D1029806A9081A79
:1050C00000F1200A600702D524F4803400E00127B3
:1050D000574502DDA7EB0A0000E0002000EB0A01C3
:1050E000009005984144401A0590E00306D45B46C1
:1050F0002146179A059800F0B3F90544002706E009
:1051000001A85A46C05D179990476D1C7F1C474502
:10511000F6DBE0030CD55B462146179A059800F0B4
:105120009FF9054404E030205A46179990476D1CBA
:105130000099481E00900029F5DC08E002980299C9
:105140005A460078491C0291179990476D1CBAF194
:105150000001AAF1010AF1DC65E100000928010063
:1051600030313233343536373839616263646566DD
:10517000000000003031323334353637383941429F
:10518000434445460000000000F058F90544761CF1
:10519000307800287FF4ECAD19B02846BDE8F08FD8
:1051A000620700D4062709F1070222F0070CFCE889
:1051B0000223E14603F000485FEA080C02D00FF238
:1051C000702C0DE05FEA045C02D50FF2682C07E05A
:1051D0005FEAC47C02D00FF2602C01E0AFF2700CE9
:1051E0004FF0FF3823F00043CDF850C065280CD0B5
:1051F00006DC452809D046281DD047283DD13DE092
:10520000662818D067287ED138E00021112F01DBF5
:10521000112000E0781CCDE9000106A90EA8FFF7D7
:10522000DDFCDDE90F010E9A03910021009207F1E8
:10523000010A04914DE04FF000400097CDE90110C4
:1052400006A90EA8FFF7CAFCDDE90F0203920E9B28
:1052500011990022DDF80CA00093049211B9791C79
:1052600000EB010AB7EB0A0004D4C0F1FF3007F1EC
:10527000010A0490AAEB0700019044E0012F00DA34
:1052800001270021112F01DD112000E03846CDE972
:10529000000106A90EA8FFF7A1FCDDE90F010E9A97
:1052A0000391002104910092BA4621070CD403997E
:1052B000514500DA8A46BAF1010F05DD009AAAF1DC
:1052C0000101515C302908D0B84202DA10F1040F14
:1052D00006DA0121CDE9011015E0AAF10101E9E7A3
:1052E000002805DC049901440491AAEB000102E0C6
:1052F000411C514500DD8A460499401A401C01902A
:105300004FF000400290200704D40198504501DB83
:10531000CDF8048000208DF84F0002980DF14F0762
:10532000B0F1004F25D02B200E9002984FF00208CC
:1053300000280CDA404202902D200E9007E00A214E
:105340000298FBF72BFA3031029007F8011DB8F1F3
:105350000001A8F10108F2DC02980028EFD1791EC3
:105360000E980870307800F0200040F0450007F8F3
:10537000020D12A8C01B00F107081498007800B1B4
:10538000012000EB0A01019801EBE071059841440E
:10539000401A401E0590E00306D45B462146179A4A
:1053A000059800F05DF805441498007818B15A4645
:1053B000179990476D1CE00324D55B462146179A48
:1053C000059800F04DF805441CE00498002807DB20
:1053D000DDE90301884203DD0098405C179901E094
:1053E000179930205A469047049805F10105401C52
:1053F00004900198401E019004D12E205A4617991E
:1054000090476D1CBAF10001AAF1010ADDDC05E04C
:1054100017F8010B5A46179990476D1CB8F1000117
:10542000A8F10108F4DC5B462146179A0598ABE623
:105430002D0000002B000000200000002DE9F041AD
:10544000044600251E461746880404D405E0394664
:105450002020B0476D1C641EF9D52846BDE8F081B8
:105460002DE9F041044600251E469046C80301D5AB
:10547000302700E02027880404D505E0414638465F
:10548000B0476D1C641EF9D52846BDE8F0810000C8
:10549000FEB506460D460024684600F029FD0022B0
:1054A0009FED1B1A6B46012156F8227055F8220019
:1054B000381A00D5404200EE100A03EB8200B8EE25
:1054C000C00AD0ED000A20EE010AF5EEC00AF1EEA6
:1054D00010FA0DD0C0EE201AB7EE000A0D4F31EED3
:1054E000C00AB0EEC00A10EE100AB84207DC09E0AC
:1054F00010EE100A084F3844084FB84202D301FAA0
:1055000002F00443521C032ACEDB2046FEBD0000FD
:1055100000008037295C0F3E666666C19A99D90003
:1055200010B541EC100BFEF7BBFB51EC100B10BD9E
:10553000FBF7F8FCFBF748FCFDF774F9FDF7B0FD4D
:10554000022001F0D1FDF5E7FBF726BF08B560B1F9
:1055500020208DF8000028208DF8010030208DF8E3
:10556000020038208DF8030004E0A32204216846DD
:10557000FAF7FAFE6A46042140F69E2001F088FD03
:1055800001F04EFA08BD00003EB5044602208DF839
:105590000000CA208DF80100E3208DF802000920E8
:1055A0008DF803006A460421682001F071FDA320F4
:1055B0008DF80000610609D5C0218DF80110C821C1
:1055C0008DF80210C2218DF8031005E08DF801005E
:1055D0008DF802008DF8030014F4C07F09D0C421B7
:1055E0008DF80410CC218DF80510C6218DF8061019
:1055F00005E08DF804008DF805008DF806008DF8A3
:1056000008008DF807008DF809006A460A2140F667
:10561000A72001F03DFDA0074FF0D80503D02020C2
:105620008DF8000001E08DF800506A46012140F637
:10563000B62001F02DFDA00601D5012000E00020DC
:1056400000F08EF814F4C07F1ED0E0050AD5B22019
:105650008DF800008B208DF80100B6208DF8020037
:105660009B2009E0B0208DF8000080208DF801001B
:10567000B4208DF8020090208DF803006A460421C2
:1056800040F6A22001F004FDE1074FF40B6022D0A8
:10569000F8218DF800106A46012101F0F9FCFA2189
:1056A000072000F03BFB072000F006FB012000F084
:1056B00023FB642000F0E2FB4FF4FA7000F0EEFBF5
:1056C000C821254800F0C0FA282000F0D5FA0A20A9
:1056D00000F0E2FA05E08DF800506A46012101F081
:1056E000D7FCA00703D5D9208DF8000001E08DF884
:1056F00000506A46012140F23D7001F0C9FC60078C
:1057000001D5012000E0002000F048F8E00601D5B6
:10571000012000E00020FFF719FF104D44F00800C1
:10572000688101F07DF90020A873600601D506208C
:10573000A87314F4C07F02D0A87B801DA87314F056
:10574000140F02D0A87B1030A873A00702D0A87B4A
:10575000001DA87300203EBD09E3CA021C4C0020B6
:105760000EB54FF4976310B106A107C901E008A276
:1057700007CA8DE807006A460921184601F088FC2F
:105780000EBD0000B8AAB38DB4980D355D000000C1
:10579000B8AAAAAAB088C3C5C700000008B560B1FE
:1057A000C0208DF80000C2208DF80100C4208DF8C3
:1057B0000200C6208DF8030004E08B220421684615
:1057C000FAF7D2FD6A46042140F6982001F060FC09
:1057D00001F026F908BD0000C8234FF48062024999
:1057E00040F6F63001F014B80C8E00082DE9FF4F9A
:1057F00089B01746DDE9165200244D4E8846814691
:105800002C80A246B07B694601F0AEF84FF0FF3B1A
:1058100018B158460DB0BDE8F08F708910F0140F24
:105820003ED0009909BA21F0FF029DF803100A4307
:105830003A6001999DF8073009BA21F0FF01194338
:105840007960029B9DF80B401BBA23F0FF032343B2
:10585000BB60039C121424BA24F0FF0C9DF80F4087
:1058600009144CEA040C1024C7F80CC01B144FEAAE
:105870002C4712FB02F211FB012113FB03F217FB71
:1058800007221144A1F17061B1F1007F04D901F048
:10589000C7F8A5F800A0BCE7298841F480712980E9
:1058A0004206694611D50A19A41D13885BBAA8F8E7
:1058B000003053885BBAA8F80230928852BAA8F830
:1058C00004202A8842F008022A8010F4C07F11D0F8
:1058D0000A19A41D13885BBAA9F8003053885BBA73
:1058E000A9F80230928852BAA9F804202A8842F016
:1058F00070022A80800716D00C44E07800F0C005C2
:1059000000F03F016078C00706D0C80801F0070129
:105910003268491C02B190476078000703D571686E
:1059200009B1A80988470C9801F0DCFB002071E759
:105930001C4C00202DE9FF41044603A800F018FE8E
:10594000BDF80C00410CC3032F48028902F003008C
:10595000550754F8200000D54042C2F3C105960611
:1059600054F8255000D56D42C2F38116D20554F883
:10597000264000D56442A0FB0367C21702FB0372F6
:1059800000FB0120820042EA9670A5FB0367EA173C
:1059900002FB037205FB0122950045EA9672A4FB07
:1059A0000367E51705FB037304FB01318B0043EA32
:1059B0009671030E8DF80030030C8DF80130030A48
:1059C0008DF802308DF80300100E8DF80400100CD5
:1059D0008DF80500100A8DF80600080E8DF80800F5
:1059E000080C8DF80900080A8DF80A008DF80720C8
:1059F0008DF80B106A460C214FF4257001F048FB1E
:105A000004B0BDE8F08100001C4C002030B5044615
:105A100013A285B007CA8DE807004FF0FF35C82CE8
:105A200016D8C820B0FBF4F1491E080A8DF80C0006
:105A30008DF80D1003AA022140F2162001F028FB78
:105A400030B96A460C2140F6C12001F021FB10B1AB
:105A5000284605B030BD054884810020F9E70000E4
:105A6000FEF2ABC4AAF1DFDFBBAFDFDF1C4C0020CE
:105A7000F8B53049098901F0030250F822404A077D
:105A800000D56442C1F3C1028B0650F8222000D534
:105A90005242C1F3811350F82330C80500D55B4250
:105AA000254984FB0140850045EA947082FB014250
:105AB000A40F44EA820483FB0121950F45EA810586
:105AC000010E8DF80010010C8DF80110010A8DF8FF
:105AD00002108DF803006A4604214FF4747001F03F
